{
  "_format": "hh-sol-artifact-1",
  "contractName": "ERC721",
  "sourceName": "contracts/ERC721.sol",
  "abi": [
    {
      "inputs": [
        {
          "internalType": "string",
          "name": "_name",
          "type": "string"
        },
        {
          "internalType": "string",
          "name": "_symbol",
          "type": "string"
        }
      ],
      "stateMutability": "nonpayable",
      "type": "constructor"
    },
    {
      "anonymous": false,
      "inputs": [
        {
          "indexed": true,
          "internalType": "address",
          "name": "_owner",
          "type": "address"
        },
        {
          "indexed": true,
          "internalType": "address",
          "name": "_approved",
          "type": "address"
        },
        {
          "indexed": true,
          "internalType": "uint256",
          "name": "_tokenId",
          "type": "uint256"
        }
      ],
      "name": "Approval",
      "type": "event"
    },
    {
      "anonymous": false,
      "inputs": [
        {
          "indexed": true,
          "internalType": "address",
          "name": "_owner",
          "type": "address"
        },
        {
          "indexed": true,
          "internalType": "address",
          "name": "_operator",
          "type": "address"
        },
        {
          "indexed": false,
          "internalType": "bool",
          "name": "_approved",
          "type": "bool"
        }
      ],
      "name": "ApprovalForAll",
      "type": "event"
    },
    {
      "anonymous": false,
      "inputs": [
        {
          "indexed": true,
          "internalType": "address",
          "name": "_from",
          "type": "address"
        },
        {
          "indexed": true,
          "internalType": "address",
          "name": "_to",
          "type": "address"
        },
        {
          "indexed": true,
          "internalType": "uint256",
          "name": "_tokenId",
          "type": "uint256"
        }
      ],
      "name": "Transfer",
      "type": "event"
    },
    {
      "inputs": [
        {
          "internalType": "address",
          "name": "_approved",
          "type": "address"
        },
        {
          "internalType": "uint256",
          "name": "_tokenId",
          "type": "uint256"
        }
      ],
      "name": "approve",
      "outputs": [],
      "stateMutability": "payable",
      "type": "function"
    },
    {
      "inputs": [
        {
          "internalType": "address",
          "name": "_owner",
          "type": "address"
        }
      ],
      "name": "balanceOf",
      "outputs": [
        {
          "internalType": "uint256",
          "name": "",
          "type": "uint256"
        }
      ],
      "stateMutability": "view",
      "type": "function"
    },
    {
      "inputs": [],
      "name": "contractOwner",
      "outputs": [
        {
          "internalType": "address",
          "name": "",
          "type": "address"
        }
      ],
      "stateMutability": "view",
      "type": "function"
    },
    {
      "inputs": [
        {
          "internalType": "uint256",
          "name": "_tokenId",
          "type": "uint256"
        }
      ],
      "name": "getApproved",
      "outputs": [
        {
          "internalType": "address",
          "name": "",
          "type": "address"
        }
      ],
      "stateMutability": "view",
      "type": "function"
    },
    {
      "inputs": [
        {
          "internalType": "address",
          "name": "_owner",
          "type": "address"
        },
        {
          "internalType": "address",
          "name": "_operator",
          "type": "address"
        }
      ],
      "name": "isApprovedForAll",
      "outputs": [
        {
          "internalType": "bool",
          "name": "",
          "type": "bool"
        }
      ],
      "stateMutability": "view",
      "type": "function"
    },
    {
      "inputs": [
        {
          "internalType": "address",
          "name": "_to",
          "type": "address"
        },
        {
          "internalType": "string",
          "name": "_uri",
          "type": "string"
        }
      ],
      "name": "mintTo",
      "outputs": [],
      "stateMutability": "nonpayable",
      "type": "function"
    },
    {
      "inputs": [],
      "name": "name",
      "outputs": [
        {
          "internalType": "string",
          "name": "",
          "type": "string"
        }
      ],
      "stateMutability": "view",
      "type": "function"
    },
    {
      "inputs": [],
      "name": "nextTokenIdToMint",
      "outputs": [
        {
          "internalType": "uint256",
          "name": "",
          "type": "uint256"
        }
      ],
      "stateMutability": "view",
      "type": "function"
    },
    {
      "inputs": [
        {
          "internalType": "uint256",
          "name": "_tokenId",
          "type": "uint256"
        }
      ],
      "name": "ownerOf",
      "outputs": [
        {
          "internalType": "address",
          "name": "",
          "type": "address"
        }
      ],
      "stateMutability": "view",
      "type": "function"
    },
    {
      "inputs": [
        {
          "internalType": "address",
          "name": "_from",
          "type": "address"
        },
        {
          "internalType": "address",
          "name": "_to",
          "type": "address"
        },
        {
          "internalType": "uint256",
          "name": "_tokenId",
          "type": "uint256"
        }
      ],
      "name": "safeTransferFrom",
      "outputs": [],
      "stateMutability": "payable",
      "type": "function"
    },
    {
      "inputs": [
        {
          "internalType": "address",
          "name": "_from",
          "type": "address"
        },
        {
          "internalType": "address",
          "name": "_to",
          "type": "address"
        },
        {
          "internalType": "uint256",
          "name": "_tokenId",
          "type": "uint256"
        },
        {
          "internalType": "bytes",
          "name": "_data",
          "type": "bytes"
        }
      ],
      "name": "safeTransferFrom",
      "outputs": [],
      "stateMutability": "payable",
      "type": "function"
    },
    {
      "inputs": [
        {
          "internalType": "address",
          "name": "_operator",
          "type": "address"
        },
        {
          "internalType": "bool",
          "name": "_approved",
          "type": "bool"
        }
      ],
      "name": "setApprovalForAll",
      "outputs": [],
      "stateMutability": "nonpayable",
      "type": "function"
    },
    {
      "inputs": [],
      "name": "symbol",
      "outputs": [
        {
          "internalType": "string",
          "name": "",
          "type": "string"
        }
      ],
      "stateMutability": "view",
      "type": "function"
    },
    {
      "inputs": [
        {
          "internalType": "uint256",
          "name": "_tokenId",
          "type": "uint256"
        }
      ],
      "name": "tokenURI",
      "outputs": [
        {
          "internalType": "string",
          "name": "",
          "type": "string"
        }
      ],
      "stateMutability": "view",
      "type": "function"
    },
    {
      "inputs": [],
      "name": "totalSupply",
      "outputs": [
        {
          "internalType": "uint256",
          "name": "",
          "type": "uint256"
        }
      ],
      "stateMutability": "view",
      "type": "function"
    },
    {
      "inputs": [
        {
          "internalType": "address",
          "name": "_from",
          "type": "address"
        },
        {
          "internalType": "address",
          "name": "_to",
          "type": "address"
        },
        {
          "internalType": "uint256",
          "name": "_tokenId",
          "type": "uint256"
        }
      ],
      "name": "transferFrom",
      "outputs": [],
      "stateMutability": "payable",
      "type": "function"
    }
  ],
  "bytecode": "0x608060405234801561001057600080fd5b5060405161263738038061263783398181016040528101906100329190610217565b816000908161004191906104b0565b50806001908161005191906104b0565b50600060028190555033600360006101000a81548173ffffffffffffffffffffffffffffffffffffffff021916908373ffffffffffffffffffffffffffffffffffffffff1602179055505050610582565b6000604051905090565b600080fd5b600080fd5b600080fd5b600080fd5b6000601f19601f8301169050919050565b7f4e487b7100000000000000000000000000000000000000000000000000000000600052604160045260246000fd5b610109826100c0565b810181811067ffffffffffffffff82111715610128576101276100d1565b5b80604052505050565b600061013b6100a2565b90506101478282610100565b919050565b600067ffffffffffffffff821115610167576101666100d1565b5b610170826100c0565b9050602081019050919050565b60005b8381101561019b578082015181840152602081019050610180565b60008484015250505050565b60006101ba6101b58461014c565b610131565b9050828152602081018484840111156101d6576101d56100bb565b5b6101e184828561017d565b509392505050565b600082601f8301126101fe576101fd6100b6565b5b815161020e8482602086016101a7565b91505092915050565b6000806040838503121561022e5761022d6100ac565b5b600083015167ffffffffffffffff81111561024c5761024b6100b1565b5b610258858286016101e9565b925050602083015167ffffffffffffffff811115610279576102786100b1565b5b610285858286016101e9565b9150509250929050565b600081519050919050565b7f4e487b7100000000000000000000000000000000000000000000000000000000600052602260045260246000fd5b600060028204905060018216806102e157607f821691505b6020821081036102f4576102f361029a565b5b50919050565b60008190508160005260206000209050919050565b60006020601f8301049050919050565b600082821b905092915050565b60006008830261035c7fffffffffffffffffffffffffffffffffffffffffffffffffffffffffffffffff8261031f565b610366868361031f565b95508019841693508086168417925050509392505050565b6000819050919050565b6000819050919050565b60006103ad6103a86103a38461037e565b610388565b61037e565b9050919050565b6000819050919050565b6103c783610392565b6103db6103d3826103b4565b84845461032c565b825550505050565b600090565b6103f06103e3565b6103fb8184846103be565b505050565b5b8181101561041f576104146000826103e8565b600181019050610401565b5050565b601f82111561046457610435816102fa565b61043e8461030f565b8101602085101561044d578190505b6104616104598561030f565b830182610400565b50505b505050565b600082821c905092915050565b600061048760001984600802610469565b1980831691505092915050565b60006104a08383610476565b9150826002028217905092915050565b6104b98261028f565b67ffffffffffffffff8111156104d2576104d16100d1565b5b6104dc82546102c9565b6104e7828285610423565b600060209050601f83116001811461051a5760008415610508578287015190505b6105128582610494565b86555061057a565b601f198416610528866102fa565b60005b828110156105505784890151825560018201915060208501945060208101905061052b565b8683101561056d5784890151610569601f891682610476565b8355505b6001600288020188555050505b505050505050565b6120a6806105916000396000f3fe6080604052600436106100f25760003560e01c80636352211e1161008a578063b88d4fde11610059578063b88d4fde14610300578063c87b56dd1461031c578063ce606ee014610359578063e985e9c514610384576100f2565b80636352211e1461023257806370a082311461026f57806395d89b41146102ac578063a22cb465146102d7576100f2565b806318160ddd116100c657806318160ddd146101a457806323b872dd146101cf5780633b1475a7146101eb57806342842e0e14610216576100f2565b806275a317146100f757806306fdde0314610120578063081812fc1461014b578063095ea7b314610188575b600080fd5b34801561010357600080fd5b5061011e600480360381019061011991906114ad565b6103c1565b005b34801561012c57600080fd5b5061013561059b565b6040516101429190611588565b60405180910390f35b34801561015757600080fd5b50610172600480360381019061016d91906115e0565b610629565b60405161017f919061161c565b60405180910390f35b6101a2600480360381019061019d9190611637565b610666565b005b3480156101b057600080fd5b506101b9610795565b6040516101c69190611686565b60405180910390f35b6101e960048036038101906101e491906116a1565b61079f565b005b3480156101f757600080fd5b50610200610927565b60405161020d9190611686565b60405180910390f35b610230600480360381019061022b91906116a1565b61092d565b005b34801561023e57600080fd5b50610259600480360381019061025491906115e0565b61094d565b604051610266919061161c565b60405180910390f35b34801561027b57600080fd5b50610296600480360381019061029191906116f4565b61098a565b6040516102a39190611686565b60405180910390f35b3480156102b857600080fd5b506102c1610a41565b6040516102ce9190611588565b60405180910390f35b3480156102e357600080fd5b506102fe60048036038101906102f99190611759565b610acf565b005b61031a6004803603810190610315919061183a565b610bcc565b005b34801561032857600080fd5b50610343600480360381019061033e91906115e0565b610da0565b6040516103509190611588565b60405180910390f35b34801561036557600080fd5b5061036e610e45565b60405161037b919061161c565b60405180910390f35b34801561039057600080fd5b506103ab60048036038101906103a691906118bd565b610e6b565b6040516103b8919061190c565b60405180910390f35b3373ffffffffffffffffffffffffffffffffffffffff16600360009054906101000a900473ffffffffffffffffffffffffffffffffffffffff1673ffffffffffffffffffffffffffffffffffffffff1614610451576040517f08c379a000000000000000000000000000000000000000000000000000000000815260040161044890611973565b60405180910390fd5b8160046000600254815260200190815260200160002060006101000a81548173ffffffffffffffffffffffffffffffffffffffff021916908373ffffffffffffffffffffffffffffffffffffffff1602179055506001600560008473ffffffffffffffffffffffffffffffffffffffff1673ffffffffffffffffffffffffffffffffffffffff16815260200190815260200160002060008282546104f591906119c2565b9250508190555080600860006002548152602001908152602001600020908161051e9190611c02565b506002548273ffffffffffffffffffffffffffffffffffffffff16600073ffffffffffffffffffffffffffffffffffffffff167fddf252ad1be2c89b69c2b068fc378daa952ba7f163c4a11628f55a4df523b3ef60405160405180910390a460016002600082825461059091906119c2565b925050819055505050565b600080546105a890611a25565b80601f01602080910402602001604051908101604052809291908181526020018280546105d490611a25565b80156106215780601f106105f657610100808354040283529160200191610621565b820191906000526020600020905b81548152906001019060200180831161060457829003601f168201915b505050505081565b60006006600083815260200190815260200160002060009054906101000a900473ffffffffffffffffffffffffffffffffffffffff169050919050565b3373ffffffffffffffffffffffffffffffffffffffff166106868261094d565b73ffffffffffffffffffffffffffffffffffffffff16146106dc576040517f08c379a00000000000000000000000000000000000000000000000000000000081526004016106d390611d20565b60405180910390fd5b816006600083815260200190815260200160002060006101000a81548173ffffffffffffffffffffffffffffffffffffffff021916908373ffffffffffffffffffffffffffffffffffffffff160217905550808273ffffffffffffffffffffffffffffffffffffffff1661074f8361094d565b73ffffffffffffffffffffffffffffffffffffffff167f8c5be1e5ebec7d5bd14f71427d1e84f3dd0314c0f7b2291e5b200ac8c7c3b92560405160405180910390a45050565b6000600254905090565b3373ffffffffffffffffffffffffffffffffffffffff166107bf8261094d565b73ffffffffffffffffffffffffffffffffffffffff16148061083f57503373ffffffffffffffffffffffffffffffffffffffff166006600083815260200190815260200160002060009054906101000a900473ffffffffffffffffffffffffffffffffffffffff1673ffffffffffffffffffffffffffffffffffffffff16145b806108d85750600760006108528361094d565b73ffffffffffffffffffffffffffffffffffffffff1673ffffffffffffffffffffffffffffffffffffffff16815260200190815260200160002060003373ffffffffffffffffffffffffffffffffffffffff1673ffffffffffffffffffffffffffffffffffffffff16815260200190815260200160002060009054906101000a900460ff165b610917576040517f08c379a000000000000000000000000000000000000000000000000000000000815260040161090e90611973565b60405180910390fd5b610922838383610eff565b505050565b60025481565b61094883838360405180602001604052806000815250610bcc565b505050565b60006004600083815260200190815260200160002060009054906101000a900473ffffffffffffffffffffffffffffffffffffffff169050919050565b60008073ffffffffffffffffffffffffffffffffffffffff168273ffffffffffffffffffffffffffffffffffffffff16036109fa576040517f08c379a00000000000000000000000000000000000000000000000000000000081526004016109f190611d8c565b60405180910390fd5b600560008373ffffffffffffffffffffffffffffffffffffffff1673ffffffffffffffffffffffffffffffffffffffff168152602001908152602001600020549050919050565b60018054610a4e90611a25565b80601f0160208091040260200160405190810160405280929190818152602001828054610a7a90611a25565b8015610ac75780601f10610a9c57610100808354040283529160200191610ac7565b820191906000526020600020905b815481529060010190602001808311610aaa57829003601f168201915b505050505081565b80600760003373ffffffffffffffffffffffffffffffffffffffff1673ffffffffffffffffffffffffffffffffffffffff16815260200190815260200160002060008473ffffffffffffffffffffffffffffffffffffffff1673ffffffffffffffffffffffffffffffffffffffff16815260200190815260200160002060006101000a81548160ff0219169083151502179055508173ffffffffffffffffffffffffffffffffffffffff163373ffffffffffffffffffffffffffffffffffffffff167f17307eab39ab6107e8899845ad3d59bd9653f200f220920489ca2b5937696c3183604051610bc0919061190c565b60405180910390a35050565b3373ffffffffffffffffffffffffffffffffffffffff16610bec8361094d565b73ffffffffffffffffffffffffffffffffffffffff161480610c6c57503373ffffffffffffffffffffffffffffffffffffffff166006600084815260200190815260200160002060009054906101000a900473ffffffffffffffffffffffffffffffffffffffff1673ffffffffffffffffffffffffffffffffffffffff16145b80610d05575060076000610c7f8461094d565b73ffffffffffffffffffffffffffffffffffffffff1673ffffffffffffffffffffffffffffffffffffffff16815260200190815260200160002060003373ffffffffffffffffffffffffffffffffffffffff1673ffffffffffffffffffffffffffffffffffffffff16815260200190815260200160002060009054906101000a900460ff165b610d44576040517f08c379a0000000000000000000000000000000000000000000000000000000008152600401610d3b90611973565b60405180910390fd5b610d4f848484610eff565b610d5b8484848461117a565b610d9a576040517f08c379a0000000000000000000000000000000000000000000000000000000008152600401610d9190611df8565b60405180910390fd5b50505050565b6060600860008381526020019081526020016000208054610dc090611a25565b80601f0160208091040260200160405190810160405280929190818152602001828054610dec90611a25565b8015610e395780601f10610e0e57610100808354040283529160200191610e39565b820191906000526020600020905b815481529060010190602001808311610e1c57829003601f168201915b50505050509050919050565b600360009054906101000a900473ffffffffffffffffffffffffffffffffffffffff1681565b6000600760008473ffffffffffffffffffffffffffffffffffffffff1673ffffffffffffffffffffffffffffffffffffffff16815260200190815260200160002060008373ffffffffffffffffffffffffffffffffffffffff1673ffffffffffffffffffffffffffffffffffffffff16815260200190815260200160002060009054906101000a900460ff16905092915050565b8273ffffffffffffffffffffffffffffffffffffffff16610f1f8261094d565b73ffffffffffffffffffffffffffffffffffffffff1614610f75576040517f08c379a0000000000000000000000000000000000000000000000000000000008152600401610f6c90611d20565b60405180910390fd5b600073ffffffffffffffffffffffffffffffffffffffff168273ffffffffffffffffffffffffffffffffffffffff1603610fe4576040517f08c379a0000000000000000000000000000000000000000000000000000000008152600401610fdb90611e64565b60405180910390fd5b6006600082815260200190815260200160002060006101000a81549073ffffffffffffffffffffffffffffffffffffffff02191690556001600560008573ffffffffffffffffffffffffffffffffffffffff1673ffffffffffffffffffffffffffffffffffffffff168152602001908152602001600020600082825461106a9190611e84565b925050819055506001600560008473ffffffffffffffffffffffffffffffffffffffff1673ffffffffffffffffffffffffffffffffffffffff16815260200190815260200160002060008282546110c191906119c2565b92505081905550816004600083815260200190815260200160002060006101000a81548173ffffffffffffffffffffffffffffffffffffffff021916908373ffffffffffffffffffffffffffffffffffffffff160217905550808273ffffffffffffffffffffffffffffffffffffffff168473ffffffffffffffffffffffffffffffffffffffff167fddf252ad1be2c89b69c2b068fc378daa952ba7f163c4a11628f55a4df523b3ef60405160405180910390a4505050565b6000808473ffffffffffffffffffffffffffffffffffffffff163b11156112e8578373ffffffffffffffffffffffffffffffffffffffff1663150b7a02338786866040518563ffffffff1660e01b81526004016111da9493929190611f0d565b6020604051808303816000875af192505050801561121657506040513d601f19601f820116820180604052508101906112139190611fb1565b60015b611298573d8060008114611246576040519150601f19603f3d011682016040523d82523d6000602084013e61124b565b606091505b506000815103611290576040517f08c379a000000000000000000000000000000000000000000000000000000000815260040161128790612050565b60405180910390fd5b805181602001fd5b63150b7a0260e01b7bffffffffffffffffffffffffffffffffffffffffffffffffffffffff1916817bffffffffffffffffffffffffffffffffffffffffffffffffffffffff1916149150506112ed565b600190505b949350505050565b6000604051905090565b600080fd5b600080fd5b600073ffffffffffffffffffffffffffffffffffffffff82169050919050565b600061133482611309565b9050919050565b61134481611329565b811461134f57600080fd5b50565b6000813590506113618161133b565b92915050565b600080fd5b600080fd5b6000601f19601f8301169050919050565b7f4e487b7100000000000000000000000000000000000000000000000000000000600052604160045260246000fd5b6113ba82611371565b810181811067ffffffffffffffff821117156113d9576113d8611382565b5b80604052505050565b60006113ec6112f5565b90506113f882826113b1565b919050565b600067ffffffffffffffff82111561141857611417611382565b5b61142182611371565b9050602081019050919050565b82818337600083830152505050565b600061145061144b846113fd565b6113e2565b90508281526020810184848401111561146c5761146b61136c565b5b61147784828561142e565b509392505050565b600082601f83011261149457611493611367565b5b81356114a484826020860161143d565b91505092915050565b600080604083850312156114c4576114c36112ff565b5b60006114d285828601611352565b925050602083013567ffffffffffffffff8111156114f3576114f2611304565b5b6114ff8582860161147f565b9150509250929050565b600081519050919050565b600082825260208201905092915050565b60005b83811015611543578082015181840152602081019050611528565b60008484015250505050565b600061155a82611509565b6115648185611514565b9350611574818560208601611525565b61157d81611371565b840191505092915050565b600060208201905081810360008301526115a2818461154f565b905092915050565b6000819050919050565b6115bd816115aa565b81146115c857600080fd5b50565b6000813590506115da816115b4565b92915050565b6000602082840312156115f6576115f56112ff565b5b6000611604848285016115cb565b91505092915050565b61161681611329565b82525050565b6000602082019050611631600083018461160d565b92915050565b6000806040838503121561164e5761164d6112ff565b5b600061165c85828601611352565b925050602061166d858286016115cb565b9150509250929050565b611680816115aa565b82525050565b600060208201905061169b6000830184611677565b92915050565b6000806000606084860312156116ba576116b96112ff565b5b60006116c886828701611352565b93505060206116d986828701611352565b92505060406116ea868287016115cb565b9150509250925092565b60006020828403121561170a576117096112ff565b5b600061171884828501611352565b91505092915050565b60008115159050919050565b61173681611721565b811461174157600080fd5b50565b6000813590506117538161172d565b92915050565b600080604083850312156117705761176f6112ff565b5b600061177e85828601611352565b925050602061178f85828601611744565b9150509250929050565b600067ffffffffffffffff8211156117b4576117b3611382565b5b6117bd82611371565b9050602081019050919050565b60006117dd6117d884611799565b6113e2565b9050828152602081018484840111156117f9576117f861136c565b5b61180484828561142e565b509392505050565b600082601f83011261182157611820611367565b5b81356118318482602086016117ca565b91505092915050565b60008060008060808587031215611854576118536112ff565b5b600061186287828801611352565b945050602061187387828801611352565b9350506040611884878288016115cb565b925050606085013567ffffffffffffffff8111156118a5576118a4611304565b5b6118b18782880161180c565b91505092959194509250565b600080604083850312156118d4576118d36112ff565b5b60006118e285828601611352565b92505060206118f385828601611352565b9150509250929050565b61190681611721565b82525050565b600060208201905061192160008301846118fd565b92915050565b7f2141757468000000000000000000000000000000000000000000000000000000600082015250565b600061195d600583611514565b915061196882611927565b602082019050919050565b6000602082019050818103600083015261198c81611950565b9050919050565b7f4e487b7100000000000000000000000000000000000000000000000000000000600052601160045260246000fd5b60006119cd826115aa565b91506119d8836115aa565b92508282019050808211156119f0576119ef611993565b5b92915050565b7f4e487b7100000000000000000000000000000000000000000000000000000000600052602260045260246000fd5b60006002820490506001821680611a3d57607f821691505b602082108103611a5057611a4f6119f6565b5b50919050565b60008190508160005260206000209050919050565b60006020601f8301049050919050565b600082821b905092915050565b600060088302611ab87fffffffffffffffffffffffffffffffffffffffffffffffffffffffffffffffff82611a7b565b611ac28683611a7b565b95508019841693508086168417925050509392505050565b6000819050919050565b6000611aff611afa611af5846115aa565b611ada565b6115aa565b9050919050565b6000819050919050565b611b1983611ae4565b611b2d611b2582611b06565b848454611a88565b825550505050565b600090565b611b42611b35565b611b4d818484611b10565b505050565b5b81811015611b7157611b66600082611b3a565b600181019050611b53565b5050565b601f821115611bb657611b8781611a56565b611b9084611a6b565b81016020851015611b9f578190505b611bb3611bab85611a6b565b830182611b52565b50505b505050565b600082821c905092915050565b6000611bd960001984600802611bbb565b1980831691505092915050565b6000611bf28383611bc8565b9150826002028217905092915050565b611c0b82611509565b67ffffffffffffffff811115611c2457611c23611382565b5b611c2e8254611a25565b611c39828285611b75565b600060209050601f831160018114611c6c5760008415611c5a578287015190505b611c648582611be6565b865550611ccc565b601f198416611c7a86611a56565b60005b82811015611ca257848901518255600182019150602085019450602081019050611c7d565b86831015611cbf5784890151611cbb601f891682611bc8565b8355505b6001600288020188555050505b505050505050565b7f214f776e65720000000000000000000000000000000000000000000000000000600082015250565b6000611d0a600683611514565b9150611d1582611cd4565b602082019050919050565b60006020820190508181036000830152611d3981611cfd565b9050919050565b7f2141646430000000000000000000000000000000000000000000000000000000600082015250565b6000611d76600583611514565b9150611d8182611d40565b602082019050919050565b60006020820190508181036000830152611da581611d69565b9050919050565b7f21455243373231496d706c656d656e7465720000000000000000000000000000600082015250565b6000611de2601283611514565b9150611ded82611dac565b602082019050919050565b60006020820190508181036000830152611e1181611dd5565b9050919050565b7f21546f4164643000000000000000000000000000000000000000000000000000600082015250565b6000611e4e600783611514565b9150611e5982611e18565b602082019050919050565b60006020820190508181036000830152611e7d81611e41565b9050919050565b6000611e8f826115aa565b9150611e9a836115aa565b9250828203905081811115611eb257611eb1611993565b5b92915050565b600081519050919050565b600082825260208201905092915050565b6000611edf82611eb8565b611ee98185611ec3565b9350611ef9818560208601611525565b611f0281611371565b840191505092915050565b6000608082019050611f22600083018761160d565b611f2f602083018661160d565b611f3c6040830185611677565b8181036060830152611f4e8184611ed4565b905095945050505050565b60007fffffffff0000000000000000000000000000000000000000000000000000000082169050919050565b611f8e81611f59565b8114611f9957600080fd5b50565b600081519050611fab81611f85565b92915050565b600060208284031215611fc757611fc66112ff565b5b6000611fd584828501611f9c565b91505092915050565b7f4552433732313a207472616e7366657220746f206e6f6e20455243373231526560008201527f63656976657220696d706c656d656e7465720000000000000000000000000000602082015250565b600061203a603283611514565b915061204582611fde565b604082019050919050565b600060208201905081810360008301526120698161202d565b905091905056fea2646970667358221220b46e0d78331b6e825bf93a7ec00bde58ab6fcfe1d614ddcd97fe02f4940178eb64736f6c634300081c0033",
  "linkReferences": {},
  "deployedLinkReferences": {}
}